:020000041000EA
:1010000020050020191000100000000099100010A9
:1010100000040100000000801149124A124B00F048
:1010200018F8124880471249124A134B00F011F881
:101030001249134A134B00F00CF81349134A0020CD
:10104000521A02DD043A8850FCDC114880471148EE
:1010500080479B1A03DD043BC858D050FBDC704727
:101060000C1800100C0000201C010020711300104F
:101070001C1900102005002060090020601D0010D0
:101080006409002064090020640900208809002008
:10109000C114001075110010FEE7000010B5064CD9
:1010A0002378002B07D1054B002B02D0044800E029
:1010B00000BF0123237010BD640900200000000060
:1010C0000018001008B5084B002B03D0074808494A
:1010D00000E000BF07480368002B00D108BD064BA5
:1010E000002BFBD09847F9E7000000000018001023
:1010F000680900206009002000000000164B002B4A
:1011000000D1144B9D46402292029A1A9246002129
:101110008B460F461348144A121A00F0F5F90F4B8C
:10112000002B00D098470E4B002B00D09847002092
:10113000002104000D000D48002802D00C4800F0EA
:10114000B9FA00F0BDF92000290000F013F800F012
:10115000A7F9C046000008000000000000000000E1
:10116000000000006409002088090020B516001066
:10117000C516001010B5114C201C0121802200F072
:1011800089F8201C0021802200F084F80C4B636059
:101190000C4B1B685B08013B0B4A93420DD80B4A72
:1011A00053600B490B6A1B021B0AC0200006034355
:1011B0000B620023936007331360FEE700010440D5
:1011C00002000200FC3F0020FFFFFF0010E000E0F3
:1011D00000ED00E0024B034A5A60034A5A60704730
:1011E000000104400200020001000100F0B5474682
:1011F00080B48B089B00C3181C6903250D40ED00CB
:10120000A846F826AE40B4431C61446F4F00032645
:10121000BE40B4434467CC08A4000419276C0726D9
:101220000E40B6000425B540AF432764276C5578BF
:10123000B5402E1C3E4326640C4CA04205D1271C11
:10124000246E01268E40B4433C6614787F2C02D96C
:1012500054688C4044601969127840468240151CDD
:101260000D431D6104BC9046F0BDC0460002044021
:1012700010B5CB089B00C018036C072421408900DF
:10128000033C8C40A3430364036C8A40111C194344
:10129000016410BD10B58B089B00C01803690324BE
:1012A0002140C900F5348C40A343036103698A409F
:1012B000111C1943016110BD10B5436F490003248F
:1012C0008C40A3434367436F8A40111C1943416715
:1012D00010BDC046064B1989802252010A431A816B
:1012E0004821585A8022120102435A527047C04680
:1012F0000000054008B50C4A13681B041B0E0B4880
:1013000003601268FF2111404160002B08D01B02CE
:101310005918074800F032F84000064B186002E008
:10132000054A044B1A6008BD0003014080090020F3
:10133000000024F4FC3F00200048E80108B5C0226A
:10134000084B5A62084A094B1A60191C8022D205C0
:101350000B681342FCD1C322024B5A62FFF7CAFF4B
:1013600008BDC046000001400001F13F00030140FC
:1013700008B5FFF7AFFFFFF7E1FF08BD0022430804
:101380008B4274D303098B425FD3030A8B4244D34D
:10139000030B8B4228D3030C8B420DD3FF2209028F
:1013A00012BA030C8B4202D31212090265D0030B4E
:1013B0008B4219D300E0090AC30B8B4201D3CB0344
:1013C000C01A5241830B8B4201D38B03C01A524186
:1013D000430B8B4201D34B03C01A5241030B8B4288
:1013E00001D30B03C01A5241C30A8B4201D3CB0273
:1013F000C01A5241830A8B4201D38B02C01A524158
:10140000430A8B4201D34B02C01A5241030A8B425A
:1014100001D30B02C01A5241CDD2C3098B4201D372
:10142000CB01C01A524183098B4201D38B01C01AF0
:10143000524143098B4201D34B01C01A5241030967
:101440008B4201D30B01C01A5241C3088B4201D316
:10145000CB00C01A524183088B4201D38B00C01AC3
:10146000524143088B4201D34B00C01A5241411AEA
:1014700000D20146524110467047FFE701B50020F7
:1014800000F00CF802BDC0460029F7D003B5FFF705
:1014900075FF0EBC4243891A1847C0467047C046C4
:1014A00010B50021041C00F081F8044B1868C36BD0
:1014B000002B00D09847201C00F096F9FC17001074
:1014C00070B50D4E0D4D0024AD1BAD1005D0A30021
:1014D000F35801349847A542F9D100F077F9084E46
:1014E000084D0024AD1BAD1005D0A300F358013406
:1014F0009847A542F9D170BD540900205409002035
:10150000540900205C09002070B583073FD0541EA9
:10151000002A3BD0CEB2031C032503E0621E002C40
:1015200034D0141C01335A1E16702B42F6D1032CF2
:1015300024D9FF250D402A0215432A0415430F2CF8
:1015400011D9261C103E3609013636011A1C9B198A
:10155000156055609560D56010329342F8D10F2226
:101560001440032C0AD9261FB6080136B6001A1CEF
:101570009B1920C29342FCD103221440002C05D0B9
:10158000C9B21C1919700133A342FBD170BD141CE0
:10159000031CCCE708B5034B002B02D0024800F037
:1015A00089F808BD00000000C5160010F0B55646C9
:1015B0005F464D464446F0B40E1C3C4B87B01B685A
:1015C000019003934933FF330493A422039B5200F9
:1015D0009F58002F4CD0049B984600239B46C42361
:1015E0005B009C46BC4463460293C6235B009A465C
:1015F0007C68BA44A5007D19013C08D526E06B1D26
:10160000FF331B68B34204D0043D013C1ED3002EBF
:10161000F5D17B686A68013BA3423AD05B466B60B8
:10162000002AF1D07B68029999460123A3400968FA
:101630000591194223D190477B684B45C5D143465C
:101640001B68BB42C1D1043D013CE0D2184B002BCA
:101650000ED07B68002B23D13B68002B24D0424660
:10166000381C136000E000BF43461F68002FB6D14E
:1016700007B03CBC90469946A246AB46F0BD5146E9
:101680000968194207D12B1C8433196801989047C7
:10169000D2E77C60C4E72B1C843318689047CBE703
:1016A0003B68B8461F1CE1E70023FAE7FC1700106F
:1016B0000000000008B5011C00220020002300F0FB
:1016C0001BF808BD38B5094B094CE41AA41009D021
:1016D000084AA518AD00ED182B68013C9847043D59
:1016E000002CF9D100F078F838BDC0465C09002024
:1016F00060090020FFFFFF3FF8B544465F465646AD
:101700004D469B462F4BF0B41C68A4235B00051C80
:10171000E0580E1C904600284BD043681F2B0DDC70
:101720005C1C002D21D102339B0044601E50002020
:101730003CBC90469946A246AB46F8BD224B002BD6
:101740003CD0C820400000E000BF002836D0A422D2
:1017500000235200A15843600160A05040328350E2
:10176000043283500124002DDDD09A00914681443B
:10177000424688214F467A50C42252009046804407
:1017800042468739994012688A460A43944642463F
:1017900061461160842249465F4652008F50022DF7
:1017A000C1D1021C55468D32FF3211680D431560C0
:1017B000B9E7201C4D30FF30E050AEE70120404239
:1017C000B6E7C046FC17001000000000F8B5C046A0
:1017D000F8BC08BC9E467047F8B5C046F8BC08BCCB
:1017E0009E4670470000000001B40248844601BCD8
:1017F000604700BF89090020430000002805002041
:0418000000000000E4
:08180400F8F8FF7F010000006D
:10180C002C4887460000000000000000000000008B
:10181C0000000000000000000000000000000000BC
:10182C00254887460000000000000000234887463A
:10183C0023488746234887462348874623488746BC
:10184C0023488746234887462348874623488746AC
:10185C000000000000000000214887462148874610
:10186C002148874621488746214887462148874694
:10187C0021488746214887460000000000000000F0
:10188C0000000000000000001D4887461D488746E8
:10189C001D4887461D4887460000000000000000D8
:1018AC00000000000000000000000000000000002C
:1018BC0000000000991000109910001099100010F1
:1018CC00D5110010991000109910001099100010EB
:1018DC009910001099100010991000109910001018
:1018EC009910001099100010991000109910001008
:1018FC0099100010991000109910001099100010F8
:10190C0099100010991000109910001099100010E7
:10191C00000000000000000000000000140800207F
:10192C007C080020E40800200000000000000000FB
:10193C00000000000000000000000000000000009B
:10194C00000000000000000000000000F81700106C
:10195C00000000000000000000000000000000007B
:10196C00000000000000000000000000000000006B
:10197C00000000000000000000000000000000005B
:10198C00000000000000000000000000000000004B
:10199C00000000000000000000000000000000003B
:1019AC00000000000000000000000000000000002B
:1019BC00000000000000000000000000000000001B
:1019CC0001000000000000000E33CDAB34126DE6B8
:1019DC00ECDE05000B000000000000000000000021
:1019EC0000000000000000000000000000000000EB
:1019FC0000000000000000000000000000000000DB
:101A0C0000000000000000000000000000000000CA
:101A1C0000000000000000000000000000000000BA
:101D4C002805002095150010C51000109D100010DE
:041D5C000000000083
:0400000510001019BE
:00000001FF
